:020000040800F2
:1000000040070020010100089B2B0008592200082E
:10001000992B00082B0B0008513400080000000049
:10002000000000000000000000000000FB2E00089F
:100030002D0B000800000000F92E0008FD2E00081E
:100040001B0100081B0100081B0100081B01000820
:100050001B0100081B0100081B0100081B01000810
:100060001B0100081B0100081B0100081B01000800
:100070001B0100081B0100081B0100081B010008F0
:100080001B0100081B0100081B0100081B010008E0
:100090001B0100081B0100081B0100082F0B0008B2
:1000A0001B010008612F00081B0100081B0100084C
:1000B0001B0100086D2F0008792F00081B010008A4
:1000C0001B0100081B0100081B0100081B010008A0
:1000D0001B0100081B010008453400081B01000833
:1000E0001B0100081B0100081B010008DFF80CD0F1
:1000F00000F0B8FC00480047B94F00084007002056
:100100000648804706480047FEE7FEE7FEE7FEE7B1
:10011000FEE7FEE7FEE7FEE7FEE7FEE75F2F0008EB
:10012000ED0000082DE9F0410024061B254671F181
:10013000000605DA01240027D0EB070067EB010178
:10014000161E73F1000605DA0027D2EB070201251F
:1001500067EB030300F088FB86460E4617469C4675
:10016000AC4204D00025D0EB050E65EB010624B1AE
:100170000020D2EB000760EB030C704631463A4694
:100180006346BDE8F081202A04DB203A21FA02F020
:100190000021704721FA02F3D040C2F120029140C1
:1001A000084319467047D2B201E000F8012B491EFE
:1001B000FBD270470022F6E710B513460A46044604
:1001C0001946FFF7F0FF204610BD10B5002200E0F1
:1001D000521C835C8C5CA34201D1002BF8D1D8B2B5
:1001E000E1B2401A10BD30B504460020034600E0DD
:1001F0005B1C934203D2E05CCD5C401BF8D030BD69
:10020000F0B480EA0102D40F4200B2EB410F02D2F7
:100210000246084611464A0042D0C30DDDB2C1F382
:10022000C752AD1A202D35DAC1F3160141F4000290
:1002300004B15242C5F1200602FA06F12A411044E7
:10024000B3EBD05F23D0C4B1012DA0EBC35009DCC8
:10025000F0BC4FF0004202EAC352DBB200F50000EE
:1002600000F05DBB400000F1807000EBC350A0F1D6
:10027000807040EAD170490009E0490841EAC07144
:10028000A0EBC35000F50000400800EBC350F0BCE9
:1002900000F03CBB6142012202EB4101001BF6E78A
:1002A000F0BC704781F00041AAE780F00040A7E76A
:1002B00080EA010210B502F00043400022D04A005B
:1002C0001FD0010E01EB1261C0F35600C2F35602BB
:1002D00040F4000042F40002A0FB022000047F3939
:1002E000140400D0401C50EA124001D44000491EC2
:1002F000C2B20C0604EBD010401C4008802A02D089
:1003000003E0002010BD20F00100002900DA0020E9
:10031000184310BD30B480EA010202F0004530F00D
:10032000004221F0004013D090B1C30DD40DC2F3B0
:100330001601C0F31600E41A41F4000140F4000273
:100340007D34914201D3641C00E04900002C02DAA4
:1003500030BC002070474FF400000023914201D3CD
:10036000891A034340084FEA4101F7D151B1914244
:1003700002D14FF0004105E002D24FF0010101E04F
:100380006FF0010103EBC450284430BC00F0BEBA4A
:10039000420005D0C0F3C7525242914201DC002016
:1003A000704700EBC15070472DE9FE4F804681EA4F
:1003B0000300C00F0C46009021F0004123F00045DF
:1003C000B8EB0200A94105D24046214690461C46A2
:1003D0000B46024623F00040104347D0270DC7F3D9
:1003E0000A00C3F30A510290401A019040286BDAC8
:1003F000C3F3130040F4801B0098924620B1002301
:10040000D2EB030A63EB0B0B01985946C0F1400293
:10041000504600F05AFA06460D4650465946019A93
:1004200000F062FA10EB08006141002487EA1152E3
:1004300084EAE7731A4340D0009A62B3019A012A12
:100440004FEA075215DC001B61EB02014FF000423E
:1004500002EA0752CDE90042001C41F58011324604
:100460002B4600F099FA03B0BDE8F08F40462146D4
:10047000F9E7001B61EB0201001C41F58013001835
:100480005B412018A2F5001747EB030140EAD57045
:10049000B6196D4111E06D084FEA360645EAC075A0
:1004A0004FEA0752001B61EB0201001C41F580116D
:1004B00049084FEA30000019514132462B4603B03B
:1004C000BDE8F04F00F059BA009801224000002327
:1004D000D0EB020263EBE073009821464FEAE07430
:1004E000B8EB000061EB0401E9E783F000435BE750
:1004F00081F0004158E72DE9FE4F81EA030404F042
:10050000004421F0004100944FF0000B23F0004321
:1005100050EA01045ED052EA03045BD0C3F30A54EC
:10052000C1F30A552C44A4F2F3340194A0FB025405
:10053000C1F3130141F48011C3F3130343F4801397
:1005400001FB024400FB034E840A970A44EA8154EB
:1005500047EA8357A4FB076802958D0A05FB0785C8
:100560004FEA932C04FB0C542705029D4FEA0658D2
:1005700047EA1637B5EB08056EEB070C870E920EAF
:1005800047EA811742EA8312A7FB0201B6EB0B018F
:1005900064EB00042B0D43EA0C335E1844EB1C5053
:1005A000DA465146E7FB0201C5F313044FEA0B3369
:1005B00043EA14534FEA0432019C43EA0603A4F1D0
:1005C0000C040294009CCDE900B400F0E5F903B0FE
:1005D000BDE8F08F00200146F9E72DE9F04D81EAF2
:1005E000030404F0004B21F0004514464FF0000ACC
:1005F00023F0004150EA050220D054EA01021DD048
:10060000C5F30A570246C5F31303C1F31300C1F340
:100610000A5640F4801543F48013A7EB0608101B1C
:10062000D64608F2FD3873EB050002D308F1010845
:1006300001E092185B41B8F1000F03DA0020014697
:10064000BDE8F08D00204FF48011064684460EE090
:10065000171B73EB050705D3121B63EB050306435A
:100660004CEA010C49084FEA300092185B4150EA0D
:100670000107EDD152EA030012D082EA040083EAB6
:100680000501084305D0101BAB4106D2012200230F
:1006900006E000224FF0004302E06FF00102531029
:1006A0001AEB06004CEB085110EB0A0041EB0B0172
:1006B000BDE8F04D00F061B9C10F80EAE070084478
:1006C000CA079623002100F02AB99623002211467A
:1006D00000F025B90EB5C10F80EAE0700844CA07E2
:1006E000002140F233438DE80E000A460B4600F02D
:1006F00053F903B000BD0EB540F233410291002121
:10070000CDE900110A460B4600F046F903B000BDE2
:1007100000F0004220F00040C10DC0F3160040F48C
:1007200000007F2901DA00207047962903DCC1F11F
:100730009601C84001E096398840002AF4D0404232
:10074000704720F00040C10DC0F3160040F40000D7
:100750007F2901DA00207047962903DCC1F1960158
:10076000C840704796398840704770B5C1F30A5247
:1007700001F000450024C1F3130140F2FF3341F4BE
:1007800080119A4201DA002070BD40F233439A4250
:10079000A2F2334203DC5242FFF7F5FC00E0904046
:1007A0002C43F1D0404270BDC1F30A5210B5C1F3E1
:1007B000130140F2FF3341F480119A4201DA002024
:1007C00010BD40F233439A42A2F2334203DC52425C
:1007D000FFF7D9FC10BD904010BD00F0004230F092
:1007E00000400AD0C10D01F56071C0F3160042EA65
:1007F0000151C2084007114370470020014670476D
:1008000030B5041E71F1000404DB4FF00044404297
:1008100064EB0101141E73F1000405DB1C464FF06C
:100820000043524263EB0403994208BF904230BD3B
:1008300001F0004330B421F0004150EA010206D03B
:100840000A0DA2F56072C1F31301002A02DC30BC6C
:1008500000207047440F44EAC104C100E01830BCD6
:1008600000EBC25000F052B82DE9F05F05460020C1
:1008700092469B4688460646814640241BE0284611
:10088000414647462246FFF77EFC53465A46C01A69
:10089000914110D311461846224600F016F82D1A41
:1008A00067EB01084F4622460120002100F00DF8B9
:1008B00017EB00094E41201EA4F10104DFDC48467D
:1008C00031462A464346BDE8F09F202A04DB203A01
:1008D00000FA02F1002070479140C2F1200320FA93
:1008E00003F3194390407047202A06DBCB17203AC8
:1008F00041FA02F043EAE07306E041FA02F3D04025
:10090000C2F1200291400843194670470029A8BF50
:100910007047401C490008BF20F00100704710B428
:10092000B0FA80FC00FA0CF050EA010404BF10BCDD
:10093000704749B1CCF1200421FA04F411FA0CF10A
:1009400018BF012121430843A3EB0C01CB1D4FEA43
:1009500000614FEA102042BF002010BC704700EB3E
:10096000C35010440029A4BF10BC7047401C49006C
:1009700008BF20F0010010BC704710B5141E73F1C1
:10098000000408DA401C41F1000192185B411A434F
:1009900001D120F0010010BD2DE9F04D92469B469B
:1009A00011B1B1FA81F202E0B0FA80F22032904641
:1009B000FFF78BFF04460F4640EA0A0041EA0B01AD
:1009C00053465A46084313D0114653EA010019D042
:1009D000C8F140025046FFF7D6FB05460E4650468A
:1009E00059464246FFF771FF084305D0012004E055
:1009F00020463946BDE8F08D0020054346EAE07602
:100A00002C4337430A986305E40AA0EB0800002250
:100A1000FD0A44EA47540A3002D500200146E9E7BE
:100A2000010510196941DDE9084500196941BDE872
:100A3000F04DA2E770B521F0004303430CD0C1F3A1
:100A40000A550024D5EB040564EB0403D617AD1A50
:100A5000B34102DB0020014670BD201841EB02517A
:100A600070BD0000064C074D06E0E06840F0010351
:100A700094E8070098471034AC42F6D3FFF73AFBEE
:100A800050770008707700082DE9F04D00231A46D2
:100A90001B1A8A4103DB00200146BDE8F08DC1F33B
:100AA0000A52C1F3130141F480154FF0000BD10736
:100AB00002D100186D41521E0027044640F2FF117A
:100AC000384601EB620A3E468046024600204FF45B
:100AD0008011FFF758FBC2197141BB1846EB0100AA
:100AE000B4EB030C75EB000C04D3E41A65EB0005C2
:100AF00017460E46241908F101006D41804634283E
:100B0000E3DDF91946EB0600091BA84103D24FF0BB
:100B1000FF32134601E0002213461BEB070046EBB1
:100B20000A51BDE8F04DFFF728BFFEE770474FF4CC
:100B3000807000F085B872B6FEE710B590F821100D
:100B40000022022905D00421816380F820200120A1
:100B500010BD01680B6823F00E030B6001680B6881
:100B600023F001030B6090F84030C46B012101FABF
:100B700003F3636080F8211080F82020104610BD38
:100B800010B590F821100024022903D004218163BC
:100B900001243DE001680A6822F00E020A60016843
:100BA0000A6822F001020A601A4A0168914201D1E2
:100BB000012121E0174A1432914201D110211BE09A
:100BC000144A2832914201D1891515E0114A3C326C
:100BD000914201D189140FE00E4A5032914202D164
:100BE0004FF4803108E00B4A6432914202D14FF455
:100BF000801101E04FF08071064A083A51600121EE
:100C000080F82110002180F82010416B01B1884745
:100C1000204610BD0800024070B5044600F016F9E9
:100C20000546601C02D004480078044400F00EF928
:100C3000401BA042FAD370BD58000020704700004E
:100C4000044910B50A68024202D00860FFF7F6FFB7
:100C500010BD0000140401402DE9F84FDFF8B891F1
:100C60000024A9F1040B23460F2709F1040AABF174
:100C7000040EC9E00125A5402A40AA427DD1674E55
:100C8000D1F804C0ACEB0608B44532D014DCBCF19A
:100C9000030F3AD009DCBCF1000F2AD0BCF1010FE0
:100CA0001CD0BCF1020F31D11DE0BCF1110F17D0E7
:100CB000BCF1120F2AD119E0B8F5881F19D006DC53
:100CC000B8F5803F15D0B8F5801F1FD111E0B8F5F9
:100CD000001F0ED0B8F5041F18D10AE0CB6815E04C
:100CE000CB681B1D12E0CB6808330FE0CB680C33D8
:100CF0000CE08B682BB1012B4FF0080303D045614A
:100D000004E0042302E0056100E00023FF2A01D88B
:100D1000064601E000F104064FEA840501D9A5F179
:100D20002005D6F8008007FA05FC28EA0C0803FA2B
:100D300005F548EA0508C6F800804D68ED0062D563
:100D4000374DAE6946F00106AE61AD6924F0030689
:100D500005F001050095334D06EB050CDCF8085055
:100D6000A607360F07FA06F825EA0805DFF8B88067
:100D7000404503D14FF0000817E044E0DFF8AC80B5
:100D8000404502D14FF001080FE0DFF8A480404554
:100D900002D14FF0020808E0DFF89880404502D108
:100DA0004FF0030801E04FF0040808FA06F848EA9B
:100DB0000508CCF808804D68D9F80060ED024D4672
:100DC00001D5164300E096432E604D68DAF80060C6
:100DD000AD02554601D5164300E096432E604D689E
:100DE000DBF80060AD035D4601D5164300E0964395
:100DF0002E604D68DEF80060ED03754601D51643A0
:100E000000E096432E60641C0D682A46E5407FF49E
:100E100031AFBDE8F88F0000080401400000111058
:100E2000001002400000014000080140000C014099
:100E300000100140001401408068084000D00120EB
:100E400070470AB1016170470904FBE701488068F7
:100E50007047000058000020024881680278114461
:100E60008160704758000020074810B5016841F0C4
:100E700010010160032000F075F80F2000F006F863
:100E800000F024F8002010BD0020024070B50D4D88
:100E900004464FF47A712878B1FBF0F00A490968EA
:100EA000B1FBF0F000F0DCFA48B9102C07D20022B8
:100EB0002146501E00F036F800206C6070BD012005
:100EC00070BD000058000020640000200C4808B5E8
:100ED000816941F001018161816901F001010091A5
:100EE000C16941F08051C161C06900F0805000903B
:100EF0000448416821F0E06141F00071416008BDA3
:100F00000010024000000140002809DB00F01F0231
:100F1000012191404009800000F1E020C0F800115B
:100F200070470000F0B40E4B1B680C46C3F302235D
:100F3000C3F10705042D00D90425191D072901D285
:100F4000002300E0DB1E012606FA05F1491E2140C0
:100F500099409E40761E16403143F0BC02F0FEBA26
:100F60000CED00E0064900F0070208684FF6FF03A9
:100F7000184040EA0220034A10430860704700000E
:100F80000CED00E00000FA052DE9F0470F460500E2
:100F900061D0434E306800F00700B84209D2306893
:100FA00020F0070038433060306800F00700B84296
:100FB00051D128683B4C810712D5400703D56068A2
:100FC00040F4E06060602878000703D5606840F472
:100FD000605060606068A96820F0F00008436060BD
:100FE0002878C00728D06868012810D02168022816
:100FF00010D0890700292EDA616821F0030101432E
:101000006160FFF723FF804641F288390DE02168D7
:101010008903EFE78901EDE7FFF718FFA0EB08016F
:10102000494502D90320BDE8F0876068696800F08F
:101030000C00B0EB810FEFD1306800F00700B84230
:101040000BD9306820F0070038433060306800F07A
:101050000700B84201D00120E5E72878400705D510
:101060006068E96820F4E060084360602878000761
:1010700006D56068296920F4605040EAC1006060CC
:1010800000F038F86168084AC1F30311515CC840A8
:101090000649086006480068FFF7F8FE0020C2E72E
:1010A00000200240001002407E6100086400002021
:1010B0005C0000200448054900684968044AC1F3FF
:1010C0000221515CC84070476400002000100240BB
:1010D0008E6100080448054900684968044AC1F364
:1010E000C221515CC84070476400002000100240DB
:1010F0008E6100080E4A51680E4801F00C03042B63
:1011000011D0082B0FD10C48C1F38343C903C05C35
:101110000AD55168084AC1F34041921E515C054A04
:101120005043B0FBF1F0704704494843704700005A
:101130000010024000127A006E61000800093D00B4
:101140002DE9F84F040070D02078C04DC00749D079
:101150006868C0F38100012807D06868C0F3810087
:10116000022809D16868C00306D52868800339D5EC
:1011700060680028E7D035E06068B0F5803F0BD0AC
:1011800010B1B0F5A02F11D0286820F4803028606D
:10119000286820F4802002E0286840F4803028602D
:1011A000606890B1FFF752FE06460AE0286840F4F6
:1011B00080202860F0E700BFFFF748FE801B64280E
:1011C00073D828688003F7D50CE0FFF73FFE06468A
:1011D00005E000BFFFF73AFE801B6428F0D82868BE
:1011E0008003F7D420789A4E80074FF001094FF022
:1011F000000839D5686810F00C0F07D06868C0F394
:101200008100022809D16868C00306D428688007D5
:1012100014D52069012808D110E02069B0B1C6F8C2
:101220000090FFF713FE074605E00AE1FFF70EFE08
:10123000C01B0228C4D828688007F7D528686169D0
:1012400020F0F80040EAC10028600DE0C6F80080F8
:10125000FFF7FCFD074604E0FFF7F8FDC01B02287E
:1012600023D828688007F7D4207800072CD5794840
:10127000A169D9B1C0F80090FFF7E8FD074604E086
:10128000FFF7E4FDC01B02280FD8686A8007F7D576
:1012900071484FF4FA510068B0FBF1F0009000BFC4
:1012A0000098411E0091FAD20EE080E0C0F8008064
:1012B000FFF7CCFD074604E0FFF7C8FDC01B02287E
:1012C00075D8686A8007F7D42078400760D5E86948
:1012D0000027C00008D4E86940F08050E861E86960
:1012E000012700F0805000905C480168C90513D4C4
:1012F0000168834641F480710160FFF7A7FD8246D3
:1013000006E000BFFFF7A2FDA0EB0A0064284ED85C
:10131000DBF80000C005F5D5E06801280AD008B167
:10132000052813D0286A20F001002862286A20F0DE
:10133000040002E0286A40F001002862E06841F2FF
:10134000883B98B1FFF782FD82460BE0286A40F0A7
:1013500004002862EEE700BFFFF778FDA0EB0A016A
:1013600059455AD8286A8007F6D50CE0FFF76EFD7C
:10137000824605E0FFF76AFDA0EB0A0159454CD80B
:10138000286A8007F6D41FB1E86920F08050E86130
:10139000E06988B36968C1F38101022944D0022859
:1013A000C6F8608004D0FFF751FD044638E034E011
:1013B000FFF74CFD074604E0FFF748FDC01B02287D
:1013C0002BD828688001F7D4206AB0F5803F05D17A
:1013D0006868A16820F4003008436860D4E9080117
:1013E0000843696821F4741108436860C6F8609086
:1013F000FFF72CFD044606E025E000BFFFF726FDC1
:10140000001B022809D828688001F7D51BE000BF1F
:10141000FFF71CFD001B022802D90320BDE8F88F4E
:1014200028688001F4D40EE00128F7D06868226AA9
:1014300000F48031914204D1616A00F47010884256
:1014400001D00120EAE70020E8E700000010024098
:1014500000004242800442426400002000700040CC
:1014600010B5401EB0F1807F01D3012010BD4FF0B8
:10147000E02460610F21601702F070F80020A06185
:1014800007202061002010BD7047704770B590F8AC
:101490003C20012A26D0012480F83C40022280F81A
:1014A0003D2003685A689D6822F070060A6832433E
:1014B0005A600D4B02689A4208D0B2F1804F05D0B5
:1014C0000A4B9A4202D00A4B9A4204D1496825F04D
:1014D00080031943916080F83D40002180F83C1062
:1014E000084670BD022070BD002C01400004004081
:1014F0000008004010B5040003D094F83D0010B17E
:1015000007E0012010BD002084F83C00204600F0D8
:101510001FF8022084F83D00211D206801F032FDF3
:10152000012084F8460084F83E0084F83F0084F8E7
:10153000400084F8410084F8420084F8430084F8B5
:10154000440084F8450084F83D00002010BD0000F0
:1015500008B500680B49884212D10B48C16941F0B7
:101560000401C161C069002200F004000090012163
:101570001E20FFF7D7FCBDE808401E20FFF7C4BCC3
:1015800008BD0000000800400010024090F83D1027
:10159000012901D001207047022180F83D10016827
:1015A000CA6842F00102CA6000680B49884208D04C
:1015B000B0F1804F05D00949884202D008498842DD
:1015C00004D1816801F00701062903D0016841F0C8
:1015D0000101016000207047002C01400004004020
:1015E0000008004070B5044690F83C000025012832
:1015F00017D0012684F83C60022084F83D00206862
:10160000826822F0770222F47F42826008685028C4
:1016100038D00DDC20284FD005DC90B3102811D134
:101620004AE0022070BD302846D040280AD13BE075
:1016300060282FD070280DD0B0F5805F03D0B0F5B2
:10164000005F12D0012584F83D60002084F83C0042
:10165000284670BDCB68D1E90121206801F0D5FC96
:101660002068816841F0770109E0CB68D1E9012168
:10167000206801F0CAFC2068816841F480418160E3
:10168000E1E719E0CA684968206801F073FD50215C
:10169000206806E0CA684968206801F07CFD602186
:1016A000206801F0BCFCCEE7CA684968206801F0F8
:1016B00061FD40212068F4E7226801461046F0E70A
:1016C0002DE9F0410D46040003D094F83D0018B117
:1016D00008E00120BDE8F081002084F83C002046AD
:1016E00000F040F8022084F83D002068816844F250
:1016F000070291438160211D206801F043FC2268AC
:1017000090689169166A2B68AF69034340F2033011
:10171000814341EA0721A868EF6908434FF6FC417D
:101720008843E96840EA0720014328692F6A0001DD
:1017300040EA0730084369686D6926F0220646EAE8
:101740000515294393602268906154F8460B0162A5
:10175000012004F81F09E0752076E0762077A07557
:101760000020B7E700B585B00021009101910291FA
:101770000391224B0268224922489A421CD18A696D
:1017800042F400628A618A6902F4006204928A6902
:1017900042F004028A61896901F0040104914FF466
:1017A000407100916946FFF757FA0022114619204F
:1017B000FFF7B8FB19201DE0134B9A421CD1CA69F0
:1017C00042F00202CA61CA6902F0020204928A6906
:1017D00042F004028A61896901F004010491C02188
:1017E00000916946FFF738FA002211461D20FFF7E5
:1017F00099FB1D20FFF788FB05B000BD002C0140C0
:1018000000100240000801400004004070B590F84C
:101810003E60044690F83F5090F8423090F84320E4
:10182000022021B104290ED0012E1BD114E0012E7B
:1018300018D1012B16D184F83E0084F84200012211
:101840000021206820E0012D0CD1012A0AD184F862
:101850003F0084F8430014E0012D03D1012B01D196
:10186000012A01D0012070BD84F83E0084F83F00B9
:1018700084F8420084F8430001220021206801F02E
:10188000B7FB01220421206801F0B2FB2068016847
:1018900041F001010160002070BD704770B5044641
:1018A000006801694FF00005C943890715D4C16874
:1018B000C943890711D4E91E0161012020772068FE
:1018C00080698007204602D0FFF7E7FF04E000F0C0
:1018D000BDF8204600F060F9257720680169C9430A
:1018E000490717D4C168C943490713D46FF00401ED
:1018F0000161022020772068806910F4407F204633
:1019000002D0FFF7CAFF04E000F0A0F8204600F084
:1019100043F9257720680169C943090716D4C168CE
:10192000C943090712D46FF0080101610420207730
:101930002068C0698007204602D0FFF7AEFF04E0B0
:1019400000F084F8204600F027F925772068016927
:10195000C943C90617D4C168C943C90613D46FF077
:1019600010010161082020772068C06910F4407FD1
:10197000204602D0FFF791FF04E000F067F8204610
:1019800000F00AF9257720680169C943C90708D121
:10199000C168C943C90704D1891E0161204600F00E
:1019A0004BF920680169C943090609D4C168C943D4
:1019B000090605D46FF0800101612046FFF764FD40
:1019C00020680169C943490609D4C168C943490669
:1019D00005D46FF040010161204600F07BF92068DA
:1019E0000169C94389060BD4C168C943890607D474
:1019F0006FF0200101612046BDE87040FFF745BD52
:101A000070BD000000B585B00021009101910291E8
:101A100003910068B0F1804F11D10A48816941F00B
:101A2000040181618069694600F00400049003208C
:101A300000900220019003900348FFF70DF905B0D4
:101A400000BD00000010024000080140704770B562
:101A5000044690F83C0000260D4601280FD00120D6
:101A600084F83C006AB1042A1DD0082A2FD00C2A21
:101A70003FD00126002084F83C00304670BD022093
:101A800070BD206801F0D4FA2068816941F0080136
:101A900081612068816921F0040181612068816988
:101AA0002A69114311E0206801F0EAFA206881698F
:101AB00041F4006181612068816921F48061816164
:101AC000206881692A6941EA02218161D2E72068A0
:101AD00001F002FB2068C16941F00801C161206882
:101AE000C16921F00401C1612068C1692A691143FB
:101AF00011E0206801F01CFB2068C16941F400611D
:101B0000C1612068C16921F48061C1612068C16937
:101B10002A6941EA0221C161ACE710B5040003D093
:101B200094F83D0010B107E0012010BD002084F8BA
:101B30003C00204600F01EF8022084F83D00211DE4
:101B4000206801F01FFA012084F8460084F83E0066
:101B500084F83F0084F8400084F8410084F8420093
:101B600084F8430084F8440084F8450084F83D007C
:101B7000002010BD08B50068B0F1804F08D10548BD
:101B8000C16941F00101C161C06900F0010000902C
:101B900008BD0000001002407047000010B5044668
:101BA000022249B104290ED0082913D094F841002B
:101BB000012816D0012010BD94F83E000128F9D16B
:101BC00084F83E200FE094F83F000128F2D184F819
:101BD0003F2008E094F840000128EBD184F8402031
:101BE00001E084F841200122206801F001FA0F4948
:101BF0002068884203D1426C42F40042426420686B
:101C0000884208D0B0F1804F05D00949884202D0FF
:101C10000849884204D1816801F00701062903D0F0
:101C2000016841F001010160002010BD002C01405D
:101C3000000400400008004010B503681F48214917
:101C400002681F4809689342006813D1426AC06A5B
:101C5000A2EB50021C4802824B6AC96AA3EB5101F5
:101C60004182838AD31A0383C38ACB1A4383828235
:101C7000C18210BD42F2107283420ED1446A134BEE
:101C80009442B3F9081001D2491C03E0446A94421B
:101C900001D9491E1981426210BD8B42FCD14C6AA8
:101CA0000B4B9442B3F9080001D2401C03E04C6A8C
:101CB000944201D9401E18814A6210BD8002002062
:101CC000A80100203802002000000020200300208E
:101CD000300300207047704770470000F8B5016876
:101CE00004460868CA684B6910F00F0F4FF00005F2
:101CF0005AD003F0010602F49077374365D0C1074C
:101D000005D0D10503D5616C41F001016164410743
:101D100005D5D90703D0616C41F0020161648107E8
:101D200005D5D90703D0616C41F004016164010756
:101D300007D502F02001314303D0616C41F0080166
:101D40006164616C00293BD0800604D5900602D501
:101D5000204601F061FA20684069616CC0F3801090
:101D600001F00801014320462BD001F02EFA206833
:101D70004069400621D52068143050E8001F21F04A
:101D8000400140E80012002AF5D1E06BA8B16D498E
:101D90004163E06BFEF7F4FE002811D0E06B416B6D
:101DA00001B0BDE8F040084783060ED593060CD578
:101DB0002046BDE8F84001F02FBA2046FFF78CFF1F
:101DC000F8BDFFF789FF6564F8BD266B2023012E5F
:101DD0007CD1C6067AD5D60678D5086848680090C2
:101DE00048694FF00206400640D5E16B086840683C
:101DF0000004000CE8D0A28D8242E5D9E085886914
:101E000020282DD020680C3050E8001F21F480716C
:101E100040E80012002AF5D12168143151E8000F82
:101E200020F0010041E80002002AF5D120681430BA
:101E300050E8001F21F0400140E80012002AF5D1CF
:101E400084F84230256320680C3050E8001F21F0F0
:101E5000100140E80012002AF5D1E06BFEF76DFE9C
:101E60006663A08DE18D401A81B22AE0A08DE18DDC
:101E7000401A81B2E08D0028A6D00029A4D02268A3
:101E80000C3252E8000F20F4907042E80007002F57
:101E9000F5D12068143050E8002F22F0010240E80C
:101EA0000027002FF5D184F84230256320680C30DC
:101EB00050E8002F22F0100240E80023002BF5D15B
:101EC00066632046FFF707FFF8BDFFE705062BD541
:101ED000150629D594F841002128F5D1A068B0F560
:101EE000805F01D12069B0B1206A411C2162216864
:101EF00000784860E08C401E0004000CE084E3D1D0
:101F00002068C16821F08001C1602068C16841F08B
:101F10004001C160D8E7206A0088C0F3080048602B
:101F2000206A801C2062E5E74006CDD55006CBD55F
:101F3000CA68204622F04002CA6084F8413000F0AE
:101F40008AF9C1E7BB31000870B5040004D094F8E9
:101F50004100002510B106E0012070BD84F840501A
:101F6000204600F023F8242084F841002068C1684E
:101F700021F40051C160204601F0B0F920680169E8
:101F800021F4904101612068416921F02A014161F9
:101F90002068C16841F40051C1606564202084F864
:101FA000410084F842006563002070BD30B585B003
:101FB0000024009401940294039400681849884214
:101FC0002BD11848C16941F40031C161C16901F4E4
:101FD00000310491816941F0040181618069124DF1
:101FE00000F00400049004200090022001900320DF
:101FF000039069462846FEF72FFE0820CDE900042D
:10200000694628460294FEF727FE00220321262077
:10201000FEF788FF2620FEF777FF05B030BD0000F1
:1020200000440040001002400008014090F8423097
:10203000202B01D00220704721B11AB10023036385
:1020400001F0A8B9012070472DE9F0414D4C002561
:102050004FF480712078FF280BD325704A48FEF793
:10206000A9F84FF6FF730A2248A14B4800F0A6F8E2
:102070007FE0454AA378494F1354401C414BC0B2FE
:10208000207093F90160022808D3104410F8012C45
:102090000A2A03D110F8020C0D2801D0FEB123E06A
:1020A00025703948FEF786F8012E02D0022E0FD097
:1020B00013E0D4E912010022394BFEF78EFA002218
:1020C000384BC4E91201FEF788FAC4E9140104E0B0
:1020D0003946206CFEF71EF92064657049E032A194
:1020E0002948FEF772F828B194F90100012806D0BA
:1020F000F8B123E0012060700020014616E0A078CE
:10210000302836D3392834D8FEF7F5FA06460D467E
:10211000D4E912010022254BFEF7EDF932462B4699
:10212000FEF742F90022224BFEF7DFF9C4E9120163
:102130001FE020A11448FEF748F818B16078022883
:1021400004D016E002206070256412E0A0783028E8
:102150000FD339280DD8FEF7B8FA05463946206C5A
:10216000FEF7A6F82946FEF74BF81349FEF79AF852
:102170002064BDE8F04103490122891C0648FFF7AD
:1021800055BF000000000020A8000020CAFDBEDDF1
:10219000D2E7B3F600000000C80200200000204192
:1021A000006AF840000069406B70000000002440A5
:1021B000000048406B640000000040422DE9F843F5
:1021C000044690F841001F4616460D46202802D0CE
:1021D0000220BDE8F8837DB176B100206064212043
:1021E00084F84100FEF732FEA6848046E684A068AB
:1021F000B0F5805F02D003E00120EAE7206910B16A
:102200002E4600250EE000260CE08021204601F03D
:10221000DCF8A0B9AEB116F8010B21684860E08C7B
:10222000401EE084E08C43464FF0000200970028F7
:10223000EBD14FF04001204601F0C7F830B1032048
:10224000C7E735F8020BC0F30800E6E7202084F862
:1022500041000020BDE77047FEE7000010B50E4CBE
:10226000002280212046FEF7ECFD00F017F8012245
:1022700040212046FEF7E5FD00F010F80022402145
:102280002046FEF7DEFD00F009F820460122BDE8F9
:1022900010408021FEF7D5BD000C01400020401CFD
:1022A000C0B20A28FBD370470C4800B5816985B0DD
:1022B00041F0080181618069694600F008000490DE
:1022C000C020009003200390112001900448FEF7E5
:1022D000C3FC00F09DF805B000BD000000100240F6
:1022E000000C014010B50C4C012280212046FEF765
:1022F000A8FDFFF7D3FF012240212046FEF7A1FDF4
:10230000FFF7CCFF002240212046FEF79AFDBDE8F2
:102310001040FFF7C3BF0000000C01402DE9F04161
:102320000024134E074625466006040E0122402174
:102330003046FEF786FDFFF7B1FF80213046FEF7FD
:102340007BFD08B1641CE4B2002240213046FEF758
:1023500078FDFFF7A3FF6D1CEDB2082DE4D327B184
:10236000FFF77CFF2046BDE8F081FFF7BBFFF9E7F0
:10237000000C014070B5154E05460024280601D515
:10238000012200E0002280213046FEF75AFDFFF7CF
:1023900085FF012240213046FEF753FDFFF77EFF07
:1023A000002240213046FEF74CFD072C04D10122CB
:1023B00080213046FEF745FD6806050EFFF76EFFEB
:1023C000641CE4B2082CD9D370BD0000000C01409D
:1023D00010B50E4C012280212046FEF732FD01226D
:1023E00040212046FEF72DFDFFF758FF00228021F7
:1023F0002046FEF726FDFFF751FF00224021204630
:10240000FEF71FFDBDE81040FFF748BF000C01407C
:1024100010B50A4C002280212046FEF712FD012251
:1024200040212046FEF70DFDFFF738FF2046012230
:10243000BDE810408021FEF704BD0000000C014003
:1024400070B5104D012280212846FEF7FAFCFFF7F7
:1024500025FF012240212846FEF7F3FCFFF71EFF6F
:1024600080212846FEF7E8FC08B1012400E00024A2
:10247000002240212846FEF7E4FCFFF70FFF20462C
:1024800070BD0000000C014070B5064D0C4630B127
:10249000012803D100F052F82868846370BD00F071
:1024A00071F8F9E7F001002070B5064D0C4630B127
:1024B000012803D100F054F82868446370BD00F08F
:1024C00071F8F9E7F001002070B53C211648FFF7DC
:1024D0009DF9154C2068C16841F00101C1603C21A3
:1024E0001248FFF793F9114D2868C16841F00101C6
:1024F000C1600F48FFF74AF800210E48FFF74EFB76
:1025000004210C48FFF74AFB216842F21070486230
:102510002968486208490020088108604860103135
:1025200008810860486070BDA801002038020020C2
:1025300080020020F00100202003002010B5074C8D
:1025400000224FF480612046FEF77BFC20460122EA
:10255000BDE81040D102FEF774BC0000000C014041
:1025600010B5074C00224FF400612046FEF769FCCD
:1025700020460122BDE810409102FEF762BC000037
:102580000008014010B5064C012291022046FEF7DA
:1025900058FC0022E1142046BDE81040FEF751BC73
:1025A000000C014010B5064C0122D1022046FEF776
:1025B00048FC002221152046BDE81040FEF741BC32
:1025C000000801402DE9F0410F4C01221103204683
:1025D000FEF737FC0D4E2515002229463046FEF742
:1025E00030FCE714002239463046FEF72AFC002270
:1025F00039462046FEF725FC29462046BDE8F04135
:102600000022FEF71EBC000000080140000C014043
:102610007CB514460D4606466B4606223B216820D3
:1026200000F080F800280BD1BDF8001049BA3180C5
:10263000BDF8021049BA2980BDF8041049BA2180BA
:102640007CBD7CB514460D4606466B4606224321EA
:10265000682000F067F800280BD1BDF8001049BAD7
:102660003180BDF8021049BA2980BDF8041049BA7A
:1026700021807CBD10B5FFF717FE80216B2000F094
:10268000C0F86420FEF7C8FA00216B2000F0B9F80A
:10269000032000F082F8002000F07AF8322000F0E9
:1026A00099F80021382000F0ACF800216A2000F0F1
:1026B000A8F80021232000F0A4F88021372000F0A2
:1026C000A0F8752000F011F8682801D0012010BD95
:1026D00001216B2000F095F800216C2000F091F8AA
:1026E000322000F077F8002010BD10B50446FFF747
:1026F0006FFED020FFF73EFEFFF7A2FE2046FFF759
:1027000039FEFFF79DFEFFF763FED120FFF732FE93
:10271000FFF796FE0020FFF701FE0446FFF778FE64
:10272000204610BD2DE9F0411D4614460F460646D1
:10273000FFF74EFE7006000EFFF71CFEFFF780FE4F
:1027400020B1FFF765FE0120BDE8F0813846FFF7B4
:1027500011FEFFF775FEFFF73BFE012000EB460080
:10276000C0B2FFF707FEFFF76BFE09E0012C0DD0AA
:102770005FF00100FFF7D2FD641E05F8010BE4B223
:10278000002CF3D1FFF744FE0020DDE70020F1E745
:10279000C006010E1C2000F034B8C006010E1B203C
:1027A00000F02FB8BC2801D3012110E0622801D32A
:1027B00002210CE02A2801D3032108E0142801D3C8
:1027C000042104E00A2801D3052100E006211A2093
:1027D00000F017B810B504464FF47A70844201D95E
:1027E000044602E0042C00D20424B0FBF4F0401EA6
:1027F000C1B2192000F005F86008BDE81040FFF7ED
:10280000D1BF70B50C460546FFF7E2FDD020FFF7BB
:10281000B1FDFFF715FE50B92846FFF7ABFDFFF7F6
:102820000FFE2046FFF7A6FDFFF70AFE18B1FFF7DF
:10283000EFFD012070BDFFF7EBFD002070BD2DE91D
:10284000F0411E4615460F460446FFF7C1FD6006DF
:10285000000EFFF78FFDFFF7F3FD60B93846FFF775
:1028600089FDFFF7EDFD00240CE0305DFFF782FDF0
:10287000FFF7E6FD20B1FFF7CBFD0120BDE8F081B9
:10288000641CE4B2AC42F0D3FFF7C2FD0020F5E7D0
:102890002DE9F04786B000253C480095019502954A
:1028A0000395816941F010018161816901F0100196
:1028B0000491816941F020018161816901F0200169
:1028C0000491816941F004018161816901F0040191
:1028D0000491816941F0080181618069DFF8B0A04D
:1028E00000F00800049000224FF6F8415046FEF731
:1028F000A8FADFF8A0904FF4E0580022414648467D
:10290000FEF79FFA4FF44060012402278DE8B100E2
:1029100069465046FEF7A0F94FF4704003268DE853
:10292000710069465046FEF797F901AACDF800807C
:1029300082E8B00069464846FEF78EF9E003CDE92B
:102940000005694602944846FEF786F93820CDE92D
:102950000004CDE9024669465046FEF77DF9C020E5
:10296000009001AA112082E8510069465046FEF706
:1029700073F9200200900848CDE9010469465046E9
:10298000FEF76AF906B0BDE8F087000000100240CB
:10299000000C0140000801400000211010B58CB06F
:1029A00024216846FDF706FC0024174809941549C0
:1029B0000A94C0E9001444F62061C0E902410461B0
:1029C00044618461032000900A2001900120CDE938
:1029D00002040494CDE90540079469460A48089426
:1029E000FEF76EFE08B1FEF7A6F8099409A906489D
:1029F0000A94FEF74BFD002801D0FEF79CF80CB0BE
:102A000010BD0000002C0140A801002010B58AB0C4
:102A1000002407941C2168460894FDF7CBFB1A4854
:102A20004FF0804101604721C0E9011440F2E731D5
:102A3000C0E903148461FFF770F808B1FEF77BF872
:102A4000079407A910480894FEF720FD08B1FEF787
:102A500072F86020CDE900040294002269460A4819
:102A60000494FEF7F4FF08B1FEF765F80422694606
:102A70000548FEF7ECFF08B1FEF75DF80248FEF7E7
:102A8000C1FF0AB010BD0000F001002010B58CB0ED
:102A900024216846FDF78EFB00241648099414494A
:102AA0000A94C0E9001444F62061C0E902410461BF
:102AB0008461032000900A2001900120CDE90204E6
:102AC0000494CDE90540079469460A480894FEF746
:102AD000F7FD08B1FEF72FF8099409A905480A94F3
:102AE000FEF7D4FC002801D0FEF725F80CB010BD8D
:102AF000000400403802002010B586B000241748BA
:102B00000094019402940394049413490594016081
:102B10004721C0E9011442F21071C0E90314846135
:102B2000FEF7E8FC08B1FEF706F84FF4805000907D
:102B300069460A48FEF756FD08B1FDF7FCFF04940C
:102B400004A906480594FEF7A1FC002801D0FDF772
:102B5000F2FF06B010BD0000000800408002002017
:102B60000C4810B50A4901604FF4E1314160002181
:102B700081600C22C160C0E904128161C161FFF76C
:102B8000E3F9002803D0BDE81040FDF7D4BF10BD25
:102B900000440040C8020020FEE7FEE770B50024B4
:102BA00004F1B000C0B2002100F070F90021022051
:102BB00000F06CF90021102000F068F900250121D7
:102BC000002000F063F96D1CEDB2802DF7D3641C7A
:102BD000E4B2082CE4D370BD2DE9F043664885B01B
:102BE000816941F008018161806901244FF4004648
:102BF000CDE9006400F0080003250294CDE90350FC
:102C0000DFF8789169464846FEF726F82703CDE9B4
:102C1000007469464846CDE90245FEF71DF84FF4B9
:102C20000058CDE9008469464846CDE90245FEF7E3
:102C300013F8012231464846FEF703F901223946CE
:102C40004846FEF7FEF8012241464846FEF7F9F8ED
:102C50000122940321464846FEF7F3F86420FDF76D
:102C6000DBFF002221464846FEF7EBF86420FDF723
:102C7000D3FF012221464846FEF7E3F80021AE20AB
:102C800000F004F90021022000F000F900211020DA
:102C900000F0FCF80021402000F0F8F8002181202D
:102CA00000F0F4F80021CF2000F0F0F80021A1207E
:102CB00000F0ECF80021C82000F0E8F80021A62080
:102CC00000F0E4F80021A82000F0E0F800213F2007
:102CD00000F0DCF80021D32000F0D8F800210846ED
:102CE00000F0D4F80021D52000F0D0F80021802099
:102CF00000F0CCF80021D92000F0C8F80021F12024
:102D000000F0C4F80021DA2000F0C0F80021122001
:102D100000F0BCF80021DB2000F0B8F800214020D2
:102D200000F0B4F80021202000F0B0F800210220CB
:102D300000F0ACF800218D2000F0A8F8002114204C
:102D400000F0A4F80021A42000F0A0F80021A620A3
:102D500000F09CF80021AF2000F098F80021AF208F
:102D600000F094F8FFF71AFF0021084600F008F879
:102D700005B0BDE8F083000000100240000C0140E7
:102D800010B50446B031C8B2002100F07FF8102021
:102D900040EA1410002100F079F804F00F00BDE8BB
:102DA000104040F00100002100F070B82DE9F04122
:102DB000203A00240D468046D7B27F2803D9002050
:102DC0008D1C8046EDB22946FFF7DAFF0F4E00BF9B
:102DD00004EB07100121305C00F058F8641CE4B2E9
:102DE000082CF5D36D1CE9B24046FFF7C9FF00245B
:102DF00004EB071030440121007A00F047F8641C0E
:102E0000E4B2082CF4D3BDE8F0810000966100081C
:102E10002DE9F0471D46089F90468A460646002445
:102E2000A0EB57092DE0A4B9B8F1000F07DD09F0B8
:102E3000FF004FF02B025146FFF7B8FF09E008DA18
:102E400009F0FF004FF02D025146FFF7AFFFC8F128
:102E50000008281B401EC1B20A2003F0EDF8B8FBA1
:102E6000F0F00A21B0FBF1F201FB12003030C2B2E7
:102E7000780800FB0460C0B25146FFF797FF641C5E
:102E8000E4B2AC42CFD3BDE8F08700002DE9F047B3
:102E9000184E05464FF4004909B1012200E0002216
:102EA00049463046FDF7CDFF00244FF400584FF45B
:102EB0008057002239463046FDF7C3FF280601D56A
:102EC000012200E0002241463046FDF7BAFF012210
:102ED00039463046FDF7B5FF6806641C050EE4B2BE
:102EE000082CE6D349463046BDE8F0470122FDF7FD
:102EF000A8BF0000000C014070477047FDF7ACBF51
:102F000030B58FB028216846FDF754F914210AA87E
:102F1000FDF750F901210804CDE9001000240294C6
:102F200002250491CDE907504FF4E010099068465E
:102F3000FEF706F908B172B6FEE70F20CDE90A05E3
:102F40004FF48060CDE90C4002210AA80E94FEF7F0
:102F50001BF8002801D072B6FEE70FB030BD7047F5
:102F60000148FEF79BBC0000A80100200148FEF7C5
:102F700095BC0000380200200148FEF78FBC00001D
:102F800080020020F0B50268164B174C174D4FF029
:102F90008047984205D0B84203D0A04201D0A84251
:102FA00003D122F070064A683243984205D0B842F5
:102FB00003D0A04201D0A84203D122F44074CA68D1
:102FC00022434C6922F08002224302608A68C26276
:102FD0000A688262984201D1096901630121416155
:102FE000F0BD0000002C014000040040000800403B
:102FF00010B501F01F030121046A99408C4304625B
:10300000016A9A401143016210BD10B5846842EA1A
:10301000032224F47F440A432243826010BD826865
:1030200022F070020A4342F00701816070470000FD
:1030300030B5036A026A22F00102026242688469C2
:1030400024F073050C682C4323F002058B682B4396
:103050000A4DA8420BD123F00805CB6822F4407238
:103060002B434D6923F0040315438A692A434260C8
:10307000846149684163036230BD0000002C014057
:1030800030B5026A036A23F010030362436884695F
:103090000D6824F4E64444EA05248D6822F02002F9
:1030A00042EA05120B4DA8420ED1CD6822F08002F3
:1030B00042EA05124D6923F4406343EA85038D69B2
:1030C00022F0400243EA85034360846149688163DA
:1030D000026230BD002C014030B5036A026A22F45E
:1030E000807202624268C46923F4007324F073059D
:1030F0000C682C438D6843EA05230C4DA8420ED181
:10310000CD6823F4006343EA05234D6922F440525D
:1031100042EA05128D6923F4806342EA0512426097
:10312000C4614968C163036230BD0000002C0140E6
:1031300030B5046A026A22F4805202624268C369AE
:103140000D6823F4E64343EA05238D6824F4005414
:1031500044EA0534064DA84204D14D6922F4804268
:1031600042EA85124260C36149680164046230BD6D
:10317000002C014010B5036A046A24F001040462C3
:10318000846924F0F00444EA021423F00A020A439A
:103190008461026210BD10B5036A046A24F0100451
:1031A0000462846923F0A00324F4704444EA0232E8
:1031B00043EA01118261016210BD10B5406A00212D
:1031C000C185C184FEF788FD10BD01680C3151E84E
:1031D000002F22F4907241E80023002BF5D1016802
:1031E000143151E8002F22F0010241E80023002BA6
:1031F000F5D1016B012909D101680C3151E8002F8B
:1032000022F0100241E80023002BF5D1202180F8A4
:10321000421000210163704708B590F8421022293E
:1032200001D0022008BD82684FF480539A4201D138
:10323000016921B1816A9A421BD04AB10AE0026851
:10324000816A5268C2F308020A80816A891C08E018
:10325000026972B10268526802F07F020A70816AE4
:10326000491C8162C18D491E0904090CC18503D026
:103270001BE002685268F1E70168CA6822F0200288
:10328000CA600168CA6822F48072CA6001684A692B
:1032900022F001024A61202180F84210002141639E
:1032A000026B012A03D0FEF7CFFE002008BD0163A8
:1032B00001680C3151E8002F22F0100241E8002390
:1032C000002BF5D101680A68D20602D50A68496860
:1032D0000091818DFEF7FFFCE7E7000070B5044622
:1032E00000680169E26821F44051114301612169DC
:1032F000A0680843616908432168CA6841F20C6309
:103300009A430243CA6020684169A26921F440716E
:10331000114341611E492068884202D1FDF7DAFE5F
:1033200001E0FDF7C7FE00EBC00101EB0012606891
:1033300064218000B2FBF0F3B3FBF1F36FF01806E9
:103340007343B2FBF0F5B2FBF0F605EB83053223D5
:1033500003EB0515B5FBF1F5B6FBF1F605F0F0054D
:1033600005EB0615B2FBF0F6B2FBF0F0B0FBF1F0A6
:103370006FF01802504306EB800003EB0010B0FB27
:10338000F1F0216800F00F002844886070BD000053
:103390000038014081628285C2850021416422217A
:1033A00080F84210016921B10168CA6842F4807254
:1033B000CA6001684A6942F001024A610068C16856
:1033C00041F02001C160002070472DE9F04198468E
:1033D00017460E460446069D27E0681C25D02DB1F1
:1033E000FDF734FDA0EB0800A8421ED920680C3080
:1033F00050E8001F21F4D07140E80012002AF5D1F6
:103400002068143050E8001F21F0010140E800124C
:10341000002AF5D1202084F8410084F842000020E1
:1034200084F840000320BDE8F0812068006836EA97
:10343000000004D00020B842CFD00020F3E70120E4
:10344000F9E700000148FEF749BC0000C80200206F
:10345000FEE700002DE9F0411F4C11440E1A1D4DEE
:10346000206AFDF729F92946FCF722FF0546304678
:10347000FDF722F901461948FCF71AFF2946FCF727
:10348000BFFEFDF745F92062E1690546084442F2B6
:103490001071E061884202DC4942884200DA084645
:1034A000E061FDF717F9D4E91423FDF724F8064687
:1034B0000F462846FDF70EF9D4E91223FDF71BF855
:1034C00032463B46FCF770FFFDF74FF96062BDE8FE
:1034D000F08100003333333F000000209A99993E79
:1034E0002DE9F0410A4D0E4607461146286CFCF7BF
:1034F000DFFE044631463846FCF7D7FEE96BFCF7A1
:10350000D7FE2146FCF77CFEBDE8F041FDF700B98F
:10351000000000200FB4054B10B503A9044A02981F
:1035200000F0AAF810BC5DF814FB0000A14A0008E6
:10353000A0000020490050EAC12018BF04204A0D15
:1035400018BF40F0010040F2FF72B2EB515F08BFBC
:1035500040F00200012808BF052070470907090E46
:10356000002804DB00F1E02080F80014704700F030
:103570000F0000F1E02080F8141D70472DE9F041A4
:103580004F1E00EBC7010446D1E9000115461E4657
:1035900037F006020DD02A463346FCF7ACFF7F1EFB
:1035A00004EBC703D3E90023FCF7FEFE37F0060265
:1035B000F1D1022F25D0042F13D0062F18BFBDE85C
:1035C000F0812A463346FCF796FFD4E90A23FCF73C
:1035D000EBFE2A463346FCF78EFFD4E90823FCF7BE
:1035E000E3FE2A463346FCF786FFD4E90623FCF7C0
:1035F000DBFE2A463346FCF77EFFD4E90423FCF7C2
:10360000D3FE2A463346FCF776FFD4E90223FCF7C3
:10361000CBFE2A463346FCF76EFFD4E90023BDE813
:10362000F041FCF7C1BE0122FDF704BAFCF7BCBEB5
:103630000022134610461146FCF7CFBF024A002075
:103640001107FDF7F7B9000001FDFFFF02E008C810
:10365000121F08C1002AFAD170477047002001E00C
:1036600001C1121F002AFBD1704700000149086008
:1036700070470000A40000202DE9FF4F8DB00F46D9
:103680000546002606E025280BD0DDE90F129047FD
:103690006D1C761C28780028F5D111B03046BDE8A5
:1036A000F08F0024A246A1460122EC4900E0044329
:1036B00015F8013F203B02FA03F00842F7D12878C1
:1036C0002A2810D06FF02F022878A0F130010929A4
:1036D00014D80AEB8A0102EB410144F0020400EB2A
:1036E000010A6D1CF0E701CF5FEA000A03D544F43C
:1036F0000054CAF1000A44F002046D1C28782E28F8
:1037000017D115F8010F44F004042A280ED06FF0E9
:103710002F022878A0F1300109290AD809EB890184
:1037200002EB410100EB01096D1CF2E757F8049B25
:103730006D1C28786C280FD006DC4C2817D0682820
:103740000DD06A2814D104E0742810D07A280FD143
:103750000DE044F400140AE044F4801401E044F461
:1037600040146978814202D104F580146D1C6D1CEF
:103770002A786E2A1FD00CDC632A31D004DC002AA0
:103780008BD0582A11D1A3E0642A68D0692A0CD1C1
:1037900065E0732A2ED004DC6F2A73D0702A04D11E
:1037A0009BE0752A6FD0782A6ED01046DDE90F12A3
:1037B0009047761C50E1C4F30250022806D003283B
:1037C00009D0042801CF09D0066045E101CFF117E7
:1037D000C0E9006140E101CF06803DE106703BE1B8
:1037E00017F8040B8DF8000000208DF80100EB465F
:1037F000012003E057F804BB4FF0FF3061074FF0A2
:10380000000102D40DE008F10101884649450FDAB4
:103810008045F8DB1BF808100029F4D108E008F116
:10382000010188468142FADB1BF808100029F6D115
:10383000DDE90F23AAEB08008146214600F036F9A6
:10384000304400EB080604E0DDE90F121BF8010B21
:103850009047B8F10108F7D221464846F7E00A211F
:10386000C4F302534FF0000B0891022B04D001CF98
:10387000C117032B09D00AE0FF1D27F00707F7E85F
:10388000020108E032E01FE020E000B2C117042B83
:1038900001D140B2C117031E71F1000307DA4FF0E6
:1038A000000CD0EB0C006CEB01012D2302E0230592
:1038B00004D52B238DF82430012303E0E30701D046
:1038C0002023F7E7984658E00A2110E010210EE087
:1038D00010204FF0000B08900CE010214FF0000B6F
:1038E00044F004044FF00809089103E008214FF068
:1038F000000B0891C4F30253022B04D001CF002126
:10390000032B06D006E0FF1D27F00707F7E80201AA
:1039100003E080B2042B00D1C0B24FF000082307AF
:103920002BD5702A07D0DDF820C08CF0100C5CEA93
:103930000B0C05D00EE040238DF82430012308E065
:1039400050EA010306D030238DF824308DF825206D
:1039500002239846DDF820C08CF0080C5CEA0B0CC2
:103960000BD150EA010301D1630706D530238DF84E
:1039700024304FF00108A9F10109582A04D038A2D7
:103980000B9208AA0A920BE03AA2F9E75B46089A62
:10399000FCF76AFF0B9B9B5C0A9A521E0A921370FB
:1039A00050EA0102F2D10A98ADEB000000F1200BC1
:1039B000600702D524F4803401E04FF00109D945B5
:1039C00002DDA9EB0B0000E0002000EB0B014144FD
:1039D0000890AAEB010AE00306D4DDE90F23214693
:1039E000504600F063F806444FF0000908E009A9CA
:1039F00011F80900DDE90F12904709F10109761C61
:103A0000C145F4DBE0030CD5DDE90F232146504628
:103A100000F04CF8064404E0DDE90F123020904736
:103A2000761C0899481E08900029F5DC08E00A98E1
:103A30000A990078491C0A91DDE90F129047761C1B
:103A4000BBF10001ABF1010BF1DC21465046DDE991
:103A50000F2300F019F806446D1C1BE6092801002D
:103A600030313233343536373839616263646566F4
:103A700000000000303132333435363738394142B6
:103A800043444546000000002DE9F041044600256E
:103A90001E461746880404D405E039462020B04766
:103AA0006D1C641EF9D52846BDE8F0812DE9F04172
:103AB000044600251E469046C80301D5302700E085
:103AC0002027880404D505E041463846B0476D1CE0
:103AD000641EF9D52846BDE8F08100002DE9FE4FAF
:103AE00007460E460025684600F0E6FF00246FF00A
:103AF0000F0AE8464FF0010957F8240056F8241041
:103B0000401A00D54042FCF7D7FD5146FCF740FC77
:103B100058F8241011F0FF4F0BD0FCF7FBFB4FF0CF
:103B20007E51FCF7BFFB0A4920F00040884205DCCB
:103B300007E0084908440849884202D309FA04F01A
:103B40000543641C032CD7DB2846BDE8FE8F00002C
:103B5000295C0F3E666666C19A99D9002DE9F04D41
:103B60008D4F21F0004A86B005460C46BA452ADB47
:103B7000AAEB070028430AD08848824501DC1AD105
:103B8000CDB106B02846BDE8F04DFFF74CBD844AE4
:103B9000844B2846FCF7AFFC07460E46824A834B0F
:103BA00028462146FCF7A7FC06B03A463346BDE856
:103BB000F04DFCF7F9BB0120FFF758FD06B0BDE85A
:103BC000F04DFFF735BD7A48824542DABAF1795FA8
:103BD0000BDA2846FFF7AEFC042808BFFFF72EFDDE
:103BE000284606B02146BDE8F08D2A460B46104611
:103BF000FCF781FC834602466E480E460B460621C2
:103C00007844FFF7BBFC5A463346FCF774FC804609
:103C100069488A465A46334604217844FFF7AEFC89
:103C20005A463346FCF767FC00223B46FCF7BCFBD8
:103C300002460B4640465146FCF7CFFC2A46234637
:103C4000FCF759FC06B02A462346BDE8F04DFCF7C8
:103C5000ABBB284624F0004100223D463B46FCF722
:103C600047FC4FF0FF32FCF7E5FE0646024653489C
:103C70000F460B4606217844FFF780FC32463B4650
:103C8000FCF739FCCDE900014D4832463B460421A2
:103C90007844FFF773FC32463B46FCF72CFC0022CD
:103CA0002B46FCF781FB834602913046394602F0F1
:103CB00037FA804643480D46504517DCDDE90001E0
:103CC0005A46029BFCF789FC42462B46FCF713FC44
:103CD00042462B46FCF768FB0122FCF7ABFE304A5C
:103CE000304BFCF702FC304A304B4CE04FF0000AFE
:103CF00052460B464046FCF757FBCDE903105246AF
:103D00002B4610461946FCF7F6FB32463B46FCF7BD
:103D1000EFFBDDE90332FCF760FC06460F46DDE908
:103D200000015A46029BFCF758FC83460091012291
:103D300030463946FCF77EFE194A1A4BFCF7D8FB91
:103D400006460F46012240462946FCF773FE5A46B6
:103D5000009BFCF7D0FB32463B46FCF7C6FB064611
:103D60000F46012250462946FCF764FE0E4DDFF84F
:103D700058802A464346FCF7BBFB32463B46FCF7DD
:103D8000B7FB2A464346FCF7B3FB002CD8BF81F0B3
:103D9000004106B0BDE8F08D0000F03F0000F07F6C
:103DA000075C143326A6913C182D4454FB21F93F9F
:103DB0000000E03F0C3A0000223A00009639000073
:103DC000AC3900003333EF3FFB21E93F2DE9F84FD9
:103DD00004460D4621F0004000917349814211DCF8
:103DE0007249884201DC06D12CB120462946BDE843
:103DF000F84FFFF718BC6E48002DCCBF6D496E49D7
:103E0000BDE8F88F6D49814211DD6D498142D8BF0F
:103E10004FF0FF366DDD20462946FFF78BFB042867
:103E200008BFFFF70BFC20462946BDE8F88F65491F
:103E3000654F25F00045814233DD6449814219DD3B
:103E4000002632464FF0804320462946FCF7ACFA64
:103E500080468A46012220462946FCF7EBFD0022D7
:103E60003B46FCF742FB42465346FCF7B6FB044692
:103E70000D463EE001260022BA463B462046294632
:103E8000FCF792FA80460F46002253462046294608
:103E9000FCF72BFB42463B46FCF79FFB04460D46D6
:103EA00027E04B4981421BDDDFF828A102260022D2
:103EB000534620462946FCF71EFB00223B46FCF7F2
:103EC00073FA80460F460022534620462946FCF7E7
:103ED0000CFB42463B46FCF780FB04460D4608E0DF
:103EE000032622462B4600203B49FCF776FB04467E
:103EF0000D4622462B4610461946FCF7FCFA8B4627
:103F0000824602460B46FCF7F6FA0746024633485D
:103F100088460B4606217844FFF730FB52465B4645
:103F2000FCF7E9FA82462E488B463A46434605217D
:103F30007844FFF723FB3A464346FCF7DCFA024697
:103F40000B46002E504659460CDAFCF72DFA224655
:103F50002B46FCF7D0FA01B022462B46BDE8F04FC5
:103F6000FCF7C6BAFCF720FA22462B46FCF7C3FA48
:103F70001C4A7A4402EBC603D3E90023FCF7B5FAE6
:103F800022462B46FCF7B1FA174A7A4402EBC603E5
:103F9000D3E90023FCF7ACFA009A002AB8BF81F0FD
:103FA0000041BDE8F88F0000000010440000F07FE1
:103FB000182D4454FB21F93FFB21F9BF0000DC3FE1
:103FC0000000203E0000F33F0000F03F0000E63F0D
:103FD000008003400000F83F0000F0BFAE37000053
:103FE0006C3700000A370000D23600002DE9F04D92
:103FF0009446CCF1000423F000464CEA0404524FEE
:1040000046EAD4749A46884621F00042BC4206D85B
:10401000454240EA050442EAD474BC4204D9BDE8F2
:10402000F04D6246FFF702BBAAF14055A5F17F654E
:1040300055EA0C040BD0022404EAAA74434DDFF8BD
:1040400010E144EAD87452EA000B04D00CE0BDE859
:10405000F04DFFF7BBBE002C14BF012CBDE8F08D66
:10406000022C30D0032C32D056EA0C0B0AD0BE42C0
:1040700020D1BA4209D126F0804622F08042334650
:10408000114617E000291ADB25E0DFF8C8B0FB4431
:10409000002C04BFDBE90001BDE8F08D012C02BF5C
:1040A000DBE9000181F00041BDE8F08D022C0AD06F
:1040B000032C0CD0BA4212D1B8F1000F0BDA23480E
:1040C0002549BDE8F08D28462449BDE8F08D2846F5
:1040D0007146BDE8F08D1D482149BDE8F08D921B69
:1040E00012153C2AC4BF19481D490EDCBAF1000F55
:1040F000BEBF12F13C0F0020014606DB6246FCF712
:104100006CFA21F00041FFF761FE002C08BFBDE80A
:10411000F08D012C04BF81F00041BDE8F08D114A03
:10412000114B022C07D0FCF7E0F92A46BDE8F04D10
:104130000A4BFCF7DAB9FCF7D8F92A46BDE8F04D8E
:10414000064BFCF7D5B900000000F07F182D445451
:10415000FB2109C066360000FB21F9BFFB210940A5
:10416000FB21F93F075C143326A6A13C08B560B1DA
:1041700020208DF8000028208DF8010030208DF8D7
:10418000020038208DF8030004E0A32204216846D1
:10419000FCF709F86A46042140F69E2001F022FF50
:1041A00001F0E0FB08BD00003EB5044602208DF89A
:1041B0000000CA208DF80100E3208DF802000920DC
:1041C0008DF803006A460421682001F00BFFA3204C
:1041D0008DF80000610609D5C0218DF80110C821B5
:1041E0008DF80210C2218DF8031005E08DF8010052
:1041F0008DF802008DF8030014F4C07F09D0C421AB
:104200008DF80410CC218DF80510C6218DF806100C
:1042100005E08DF804008DF805008DF806008DF896
:1042200008008DF807008DF809006A460A2140F65B
:10423000A72001F0D7FEA0074FF0D80503D020201B
:104240008DF8000001E08DF800506A46012140F62B
:10425000B62001F0C7FEA00601D5012000E0002035
:1042600000F08EF814F4C07F1ED0E0050AD5B2200D
:104270008DF800008B208DF80100B6208DF802002B
:104280009B2009E0B0208DF8000080208DF801000F
:10429000B4208DF8020090208DF803006A460421B6
:1042A00040F6A22001F09EFEE1074FF40B6022D001
:1042B000F8218DF800106A46012101F093FEFA21E1
:1042C000072000F039FB072000F004FB012000F07C
:1042D00021FB642000F0C4FB4FF4FA7000F0D0FB27
:1042E000C821254800F0BEFA282000F0D3FA0A20A1
:1042F00000F0E0FA05E08DF800506A46012101F077
:1043000071FEA00703D5D9208DF8000001E08DF8DB
:1043100000506A46012140F23D7001F063FE6007E3
:1043200001D5012000E0002000F048F8E00601D5AA
:10433000012000E00020FFF719FF104D44F00800B5
:10434000688101F00FFB0020A873600601D50620EC
:10435000A87314F4C07F02D0A87B801DA87314F04A
:10436000140F02D0A87B1030A873A00702D0A87B3E
:10437000001DA87300203EBD09E3CA0210030020FF
:104380000EB54FF4976310B106A107C901E008A26A
:1043900007CA8DE807006A460921184601F022FE87
:1043A0000EBD0000B8AAB38DB4980D355D000000B5
:1043B000B8AAAAAAB088C3C5C700000008B560B1F2
:1043C000C0208DF80000C2208DF80100C4208DF8B7
:1043D0000200C6208DF8030004E08B220421684609
:1043E000FBF7E1FE6A46042140F6982001F0FAFD51
:1043F00001F0B8FA08BD0000C8234FF480620249FA
:1044000040F6F63001F090B9186A00082DE9FF4F28
:1044100089B01746DDE9165200244C4E8846814685
:104420002C80A246B07B694601F02AFA4FF0FF3B90
:1044300018B158460DB0BDE8F08F708910F0140F18
:104440003CD0009909BA21F0FF039DF803100B43FB
:104450003B6001991B1409BA21F0FF029DF8071077
:104460005B430A437A6002999DF80B4009BA21F038
:10447000FF012143B960039C091424BA24F0FF0C06
:104480009DF80F4012144CEA040CC7F80CC04FEA18
:104490002C47494302FB023207FB07111144102449
:1044A000A1F17061B1F1007F04D901F05BFAA5F8C8
:1044B00000A0BEE7298841F4807129804206694640
:1044C00011D50A19A41D13885BBAA8F800305388C7
:1044D0005BBAA8F80230928852BAA8F804202A8859
:1044E00042F008022A8010F4C07F11D00A19A41DDE
:1044F00013885BBAA9F8003053885BBAA9F8023078
:10450000928852BAA9F804202A8842F070022A80C0
:10451000800716D00C44E07800F0C00500F03F01A1
:104520006078C00706D0C80801F007013268491C4E
:1045300002B190476078000703D5716809B1A809F6
:1045400088470C9800F03CFE002073E71003002021
:104550002DE9FF41044603A800F09CFFBDF80C00C4
:10456000410CC3032F48028902F00300550754F899
:10457000200000D54042C2F3C105960654F82550EC
:1045800000D56D42C2F38116D20554F8264000D5FD
:104590006442A0FB0367C21702FB037200FB012009
:1045A000820042EA9670A5FB0367EA1702FB0372DA
:1045B00005FB0122950045EA9672A4FB0367E51707
:1045C00005FB037304FB01318B0043EA9671030E74
:1045D0008DF80030030C8DF80130030A8DF802309D
:1045E0008DF80300100E8DF80400100C8DF80500F6
:1045F000100A8DF80600080E8DF80800080C8DF8DA
:104600000900080A8DF80A008DF807208DF80B10B4
:104610006A460C214FF4257001F0E4FC04B0BDE8BB
:10462000F08100001003002030B5044613A285B0CD
:1046300007CA8DE807004FF0FF35C82C16D8C820F0
:10464000B0FBF4F1491E080A8DF80C008DF80D102E
:1046500003AA022140F2162001F0C4FC30B96A46D8
:104660000C2140F6C12001F0BDFC10B1284605B078
:1046700030BD054884810020F9E70000FEF2ABC49C
:10468000AAF1DFDFBBAFDFDF10030020F8B5304950
:10469000098901F0030250F822404A0700D564421C
:1046A000C1F3C1028B0650F8222000D55242C1F35B
:1046B000811350F82330C80500D55B42254984FB9F
:1046C0000140850045EA947082FB0142A40F44EA50
:1046D000820483FB0121950F45EA8105010E8DF8C7
:1046E0000010010C8DF80110010A8DF802108DF8F0
:1046F00003006A4604214FF4747001F073FC4FF01C
:10470000FF3688B9200E8DF80000200C8DF80100CE
:10471000200A8DF802008DF803406A4604214FF408
:10472000757001F05FFC08B13046F8BD280E8DF8B9
:104730000000280C8DF80100280A8DF802008DF881
:1047400003506A4604214FF4767001F04BFCF8BD2B
:104750001003002009E3CA022DE9FF4104463CA0F2
:1047600004F00303006802903AA0006803903AA0A6
:1047700006683AA0056802A8C15C8DF80010C4F371
:10478000C101425C8DF80120C4F38112805C8DF878
:10479000020003A8C35C8DF80430415C8DF805105D
:1047A000805C8DF806006A46032140F2264001F045
:1047B00019FC4FF0FF37E0BB01AA032140F22A4069
:1047C00001F010FCA8BBCDE9006560070BD59DF892
:1047D000000040F001008DF800009DF8040040F05A
:1047E00001008DF80400A0060BD59DF8010040F0F3
:1047F00001008DF801009DF8050040F001008DF8E2
:104800000500E0050BD59DF8020040F001008DF891
:1048100002009DF8060040F001008DF806006A468F
:1048200003214FF4886001F0DDFB10B901AA0321D8
:1048300000E004E040F2314001F0D4FB18B138460A
:1048400004B0BDE8F081064804810020F8E70000CC
:104850004CCD6C000CC92C003656760026466600FE
:10486000100300204FF47A7290FBF2F008B5484331
:10487000010E8DF80010010C8DF80110010A8DF861
:1048800002108DF803006A4604214FF4AE7001F067
:10489000A9FB08BD0521B0FBF1F008B5010A8DF8B0
:1048A00000108DF801006A4602214FF4AD7001F04E
:1048B00099FB08BD0521B0FBF1F008B5010A8DF8A0
:1048C00000108DF801006A4602214FF4AC7001F02F
:1048D00089FB08BD08B500218DF80010C10702D082
:1048E00030218DF80010810705D59DF8001041F0AA
:1048F0000C018DF80010400705D59DF8000040F030
:1049000003008DF800006A4601214FF4A47001F005
:1049100069FB08BD08B560B1042800D90420401E19
:104920008DF800006A46012140F24F1001F05AFB59
:1049300008BD0120F3E700002DE9FC4105464007D2
:104940004FF0FF367CD0B1F5C86F79D80846FBF739
:10495000BCFE3E49FBF7DEFC074601A800F07CFDEB
:104960009DF80400022806D004280DD008282ED077
:10497000102865D134E00E213846FBF709FDFBF71E
:10498000E0FE84B2324907E00D213846FBF700FD16
:10499000FBF7D7FE2F4984B23846FBF789FCFBF7BB
:1049A000D0FE210A8DF8001080B28DF80140010A76
:1049B0008DF802108DF80300E8076C4620D02246DF
:1049C00002214FF4EA7001F00DFBC8BB11E00C218D
:1049D0003846FBF7DDFCFBF7B4FE84B21E49DBE78B
:1049E0000B213846FBF7D4FCFBF7ABFE84B21B4926
:1049F000D2E7A21C02214FF4927001F0F3FAF8B949
:104A0000A8070DD56A4602214FF4EC7001F0EAFACE
:104A1000B0B9A21C02214FF4947001F0E3FA78B906
:104A2000680710D56A4602214FF4EE7001F0DAFAF9
:104A300030B9A21C02214FF4967001F0D3FA10B1E4
:104A40003046BDE8FC810020FBE700000000484341
:104A5000000040460000C045000040450000C04442
:104A60000521B0FBF1F008B5010A8DF800108DF8B2
:104A700001006A4602214FF4EF7001F0B3FA08BD5D
:104A80000521B0FBF1F008B5010A8DF800108DF892
:104A900001006A4602214FF4ED7001F0A3FA08BD4F
:104AA00013B54FF0FF33012269460248FDF786FB3C
:104AB00000981CBDC80200202DE9FE43064626488A
:104AC00001AB042240680D210078FDF72BFE10B1E8
:104AD0000720BDE8FE839DF804101C2000EAD102E7
:104AE0009DF80710DFF87490C1F301131A438DF895
:104AF00000209DF80520C1F3810300EAD2021A4389
:104B00008DF801209DF8062001F0030100EAD20093
:104B100008430024124F8DF80200A0466D46285D20
:104B200010B146F824900AE046F824800DE000BF5A
:104B300056F824003946FBF7BBFB46F82400285DF5
:104B4000401E10F0FF002855F2D1641CE4B2032C83
:104B5000E5D30020BDE70000680000207B14AE3ED6
:104B60001D5A843F2DE9FE4F05460120C14E8DF8A8
:104B700000004FF000088DF8018030680C461746A1
:104B8000817C70686B4602220078FDF758FE4FF07A
:104B9000FF3A00287AD1C820FCF73EF88DF8008053
:104BA00030686B460122C17B70680078FDF747FED4
:104BB0000028EFD130686B46012241797068007897
:104BC000FDF73DFE0028E5D130686B460122817C6F
:104BD00070680078FDF733FE0028DBD130686B4643
:104BE0000122C17D70680078FDF729FE0028D1D12F
:104BF00030686B460122017970680078FDF71FFE6E
:104C00000028C7D14FF00C098DF8009030686B4632
:104C10000122017970680078FDF711FE002835D176
:104C20000F20FBF7F9FFB06A6B460122407A8DF83E
:104C300000003068817870680078FDF700FE002879
:104C400024D1B06A6B460122007A8DF800003068EA
:104C5000417870680078FDF7F2FD002873D1B06AE2
:104C6000807A0FB140F0E0008DF8000030686B46AC
:104C70000122817970680078FDF7E1FD002862D19A
:104C80002FB1B06AC07A40F0E00001E04AE018209D
:104C90008DF8000030686B460122C1797068007899
:104CA000FDF7CDFDF0BB17B1C820FBF7B5FF4020E5
:104CB0008DF8000030686B46012201797068007839
:104CC000FDF7BDFD70BB78208DF8000030686B46A5
:104CD0000122417970680078FDF7B1FD10BB3220E8
:104CE000FBF79AFF8DF80080306847466B464179A4
:104CF000706801220078FDF7A2FD98B931687068EC
:104D0000B046897A00786B460222FDF70BFD48B960
:104D1000BDF80000AF6040BAB0FBF9F06F60C6B2FA
:104D20002F6000E00FE0A76067602760002739E090
:104D3000D8F80010D8F804006B46C97A00780C2225
:104D4000FDF7F0FC10B15046BDE8FE8FBDF8000045
:104D5000236840BA02B2BDF80200BDF804101A443C
:104D6000226040BA626800B21044606049BAA0682C
:104D700009B20844A060BDF806002B6840BA02B230
:104D8000BDF808001A4440BA01B2BDF80A002A6012
:104D90006A6840BA11446960A96800B208447F1C7F
:104DA000FFB2A860B742C3D328688322C1170904A1
:104DB00041EA104100040023FBF7B4F93246002316
:104DC000FBF7B0F9286068688322C117090441EA3B
:104DD000104100040023FBF7A5F932460023FBF73E
:104DE000A1F96860A8688322C117090441EA10414B
:104DF00000040023FBF796F932460023FBF792F9F3
:104E0000A86020684FF40065C117090441EA104109
:104E100000042A460023FBF785F932460023FBF7FE
:104E200081F9206060682A46C117090441EA1041EF
:104E300000040023FBF776F932460023FBF772F9F2
:104E40006060A0682A46C117090441EA10410004C5
:104E50000023FBF767F932460023FBF763F9A060F4
:104E6000002802DDA0F5803001E000F58030A06070
:104E7000002069E7680000202DE9F84F81462E48A0
:104E80008846002540686B46032200780D21FDF717
:104E900049FC10B10720BDE8F88F9DF80000002400
:104EA00000F01F008DF800009DF801006FF00F0B5F
:104EB00000F01F008DF801009DF802006E4600F022
:104EC0001F008DF802004FF0010A00BF59F82410AE
:104ED00058F82400081A00D54042FBF7EDFB59466C
:104EE000FBF756FA0746305DC0B1144802E014499A
:104EF000FBF7DEF9315D491E11F0FF013155F6D1A6
:104F000001463846FBF706FA4FF07E51FBF7CAF927
:104F10000C4920F00040884205DC07E00A4838448C
:104F2000B0F1D97F02D90AFA04F00543641C032CBE
:104F3000CCDB2846AFE70000680000200000C84135
:104F400054E3853F295C0F3E0000E0BE00B50246F9
:104F500000F00DF80346D01C00F009F843EAC00346
:104F6000901D00F004F843EA801080B200BD90F973
:104F70000010002902DD4FF00000704702DA4FF008
:104F80000400704790F90110002902DD4FF0010084
:104F9000704702DA4FF00500704790F902000028D0
:104FA00002DD4FF00200704702DA4FF00600704752
:104FB0004FF0070070470000754C08B57348E06378
:104FC0007448206475497448C4E9120175497448ED
:104FD000C4E914010020E082A0826070FBF744FF66
:104FE000FDF78EFFFDF754FCFDF7D8FCFDF70EFD35
:104FF000FDF74CFDFDF780FDFDF7B2FDFDF7ECFD83
:10500000FDF738FB00F0D6F9FDF75EFAFDF7DAFAA6
:105010000122A11C6448FDF709F8644F5C4A38324C
:10502000111F081F00F0F8F80028F7D1584A08327D
:10503000911E881EFDF7ECFA554A0E32911E881E0D
:10504000FDF7FFFAB4F91A20B4F918100020FEF7A2
:1050500001FA06B2B4F90C00FBF72EFB0546304608
:10506000FBF72AFB2A46216BFEF73AFA05B22846DF
:10507000FBF730FB21F0004100224D4BFBF7C0FB5A
:1050800008D2002D01DD012501E04FF0FF354FF47E
:105090007A704543002D10DA68420646FBF71AFB8A
:1050A00000223B46FBF727FAFBF77EFB81B201208B
:1050B000FDF7EAF9B1B201200EE02846FBF70AFB42
:1050C00000223B46FBF717FAFBF76EFB81B200208C
:1050D000FDF7DAF9A9B20020FDF7E6F910260096EF
:1050E0000523B4F9182000210820FDF791FE009651
:1050F0000523B4F91A2000214520FDF789FEE06B55
:10510000FBF706FB02460523022108200096FDF767
:105110007FFE2849206CFBF7CBF8FBF7F9FA024633
:105120000523022145200096FDF772FED4E9120105
:105130000022214BFBF7DFF9FBF717FB02460523A3
:10514000042108200096FDF763FED4E91401002233
:105150001A4BFBF7D0F9FBF708FB024605230421A5
:1051600045200096FDF754FE05232A460621082017
:105170000096FDF74DFE206BFBF7CAFA02460523A9
:10518000062145200096FDF743FE47E700007C42DC
:10519000000000208FC2753E295C8FC2F528AC3F0D
:1051A0002F6EA301BC05323FC80200200000F43F6F
:1051B00000408F4000002041006AF840D012634157
:1051C000704700002DE9F041124C20F0010100254C
:1051D00094F8240010B10020BDE8F081A07A4FF0CF
:1051E000FF3668B10840277C2074884200D03546DD
:1051F00041B1012000F068FF00F0B4FB38B1277422
:105200003046E9E7207D00B1012000F05DFF28462F
:10521000E2E70000680000202DE9F74F8EB00CA9EE
:1052200002A8CDE900010BAB03AA09A907A8FFF763
:10523000EDF818B1012011B0BDE8F08FBDF80800FD
:10524000C0057DD50398FBF737FA6FF01D042146A2
:10525000FBF79EF882460498FBF72EFA2146FBF7EF
:1052600097F881460598FBF727FA2146FBF790F857
:1052700080460698FBF720FA2146FBF789F8054699
:1052800001215046FBF784F806464146FBF710F82B
:1052900004464FF040414846FBF70AF807462946C6
:1052A000FBF706F82146FAF7ABFFFBF796FAFEF795
:1052B00055FC4FF0663B5A463D4BFBF71CF9FBF79C
:1052C000B7FA0E99086001214046FBF761F84146A4
:1052D0000090FAF7EDFF044638464946FAF7E8FF32
:1052E0002146FAF7DFFF4FF07E51FAF789FFFBF70F
:1052F00074FA07460C4630464946FAF7D9FF064687
:1053000029460098FAF7D4FF3146FAF779FFFBF700
:1053100064FA3A462346FEF769FE5A46244BFBF7E9
:10532000EAF8FBF785FA0F99086029460846FAF76C
:10533000BFFF074641460846FAF7BAFF064600E0B7
:1053400034E049460846FAF7B3FF0446514608469A
:10535000FAF7AEFF2146FAF753FF3146FAF7A2FFFC
:105360003946FAF79FFFFBF738FA06460C462946FE
:105370005046FAF79DFF054641464846FAF798FF22
:105380002946FAF73DFF0121FBF702F8FBF725FA62
:1053900032462346FEF72AFE5A46054BFBF7ABF88A
:1053A000FBF746FA10990860002044E7022042E724
:1053B00066A64C4010B5FCF777FF00F0F1F808B195
:1053C0000A2010BD782000F0B1FD10F0FF0F01D0D1
:1053D000012010BD7820FFF7F5FE10F0FF0F01D07F
:1053E000022010BD642000F061FD10F0FF0F01D01D
:1053F000032010BDFFF700F810F0FF0F01D00420CC
:1054000010BD1448FFF7A2FDFFF7A6F910F0FF0F3B
:1054100001D0052010BD40F27310FEF7C5FE10F05C
:10542000FF0F01D0062010BD6420FFF7FDF810F03B
:10543000FF0F01D0072010BD00F006FE08B10820C4
:1054400010BD012000F058FC10F0FF00F8D009203A
:1054500010BD0000940000200D494A7A42B1012A93
:1054600008D0022A0FD0032A0FD04FF0FF30704728
:10547000022200E004220270C97C11B11106C90D9C
:105480000170002070470822F5E71022F3E70000C2
:10549000680000200F494A7A42B1012A09D0022A45
:1054A00011D0032A12D04FF0FF3070474FF48042E2
:1054B00001E041F69C720280C97C11B1C2F34E0139
:1054C0000180002070474FF48052F4E74FF40062EF
:1054D000F1E70000680000200B49097A39B1012981
:1054E00007D002290AD003290BD0002103E0FA21BA
:1054F00001E04FF4FA710180002070474FF47A7197
:10550000F9E74FF4FA61F6E7680000200A49097AE2
:1055100041B1012908D002290AD003290AD04FF04D
:10552000FF307047054900E00549016000207047E1
:105530000449FAE70449F8E7680000200000034343
:105540000000834233330342333383410C49C97A29
:10555000072913D2DFE801F01204060A0C0E10002E
:10556000BC2100E062210180002070472A21FAE777
:105570001421F8E70A21F6E70521F4E70021F2E714
:1055800068000020054991F8242012B14FF0FF3047
:105590007047C98901800020704700006800002022
:1055A0002DE9FC414C4C80208DF8000020686B46B2
:1055B0000122817C60680078FDF741F94FF0FF37E8
:1055C000002832D16420FBF727FB00258DF800501E
:1055D00020686B460122817C60680078FDF72FF916
:1055E000002870D120686B460622817D60680078B3
:1055F000FDF798F8002866D19DF805009DF8031086
:10560000C007400F01F0010140EA41019DF801008F
:105610004FF0010600F00100014309D0012905D037
:10562000022915D02DA0FDF775FF4CE0E67410E0BF
:1056300020686B460122C17860680078FDF772F837
:1056400040BB9DF8000010F00F0020D0042822D0AD
:10565000E574FF2004F80A0F4FF6FF7104F8020CFE
:1056600004F8010C6070A180A0712072A6702676EB
:105670006576E572A572E56025616561A576E576DA
:10568000A5834FF4FA6000F073FB18B907E01D48DA
:10569000FDF740FF17E01CA0FDF73CFFC6E7022026
:1056A00000F088FA78B92A2000F0CAFB58B93220F5
:1056B00000F0FCFB38B90020FFF784FD18B900208A
:1056C00000F0ACFA10B13846BDE8FC81002000F0D3
:1056D0002DFC0020F8E7000068000020556E73756F
:1056E00070706F7274656420736F66747761726531
:1056F0002070726F64756374207265762025642E45
:105700000A0000000077000848616C662073656E2F
:105710007369746976697479207061727420666F38
:10572000756E642E0A0000002DE9FF4FDFF89480AB
:10573000064685B098F8250015460F464FF0FF390C
:10574000B0BBAFB3002420E0301B102800DD1020D8
:1057500080B283463A1901469246204600F042FC48
:1057600030BB6A465946204600F0D2F800BB50468E
:105770005A466946FAF737FD20B16FF0010009B0CB
:10578000BDE8F08F04EB0B0084B2B442DCD3280AEE
:105790008DF810008DF81150D8F80000444604AB85
:1057A000817ED8F8040002220078FDF748F808B19D
:1057B0004846E4E7012084F825000898E0840020AA
:1057C000DDE70000680000202DE9F84305464FF0B2
:1057D000FF39282844D80727284C00267DB101200E
:1057E00000F0FCFA20208DF800004FF00108012D98
:1057F00017D0052D18D88DF8018005201FE0002056
:1058000000F0ECFA8DF800608DF8017020686B46AE
:105810000222817C60680078FDF711F800BB2675D4
:1058200029E08DF80160E8E7142D04D802208DF8F6
:1058300001000A2003E003208DF80100142000F08D
:10584000FFFA9DF801006B4607EB80108DF8010010
:1058500020680222817C60680078FCF7F0FF10B1BC
:105860004846BDE8F8830820A072267384F81480A7
:105870000020FFF7A7FC0020F3E7000068000020ED
:105880002DE9F843214C0646174694F82400894632
:105890004FF0FF3890B3A07A80B320686B460222A5
:1058A000817A60680078FCF73DFF38BBBDF80000E6
:1058B00045BAB54202D2002038701FE060684188C6
:1058C000B5EB510F11D9216800786B46497C012254
:1058D000FCF728FF90B99DF80000C00605D500F040
:1058E00041F86FF00100BDE8F8832068F2B24B4642
:1058F000C17A60680078FCF715FF08B14046F2E70E
:10590000B5FBF6F0401E38700020ECE76800002080
:10591000F8B516000D464FF0FF371FD0104CA17A96
:10592000E1B1010A8DF80010C0B28DF801004119F3
:1059300060684289914211D8216800786B46097EDF
:105940000222FCF77CFF48B92068EAB23346417D69
:1059500060680078FCF7E6FE002800D03846F8BD05
:1059600068000020F8B5564C4FF0FF36A07A0028AA
:105970007DD000258DF8005020686B460122C17B48
:1059800060680078FCF75BFF002870D120686B46E8
:105990000122417960680078FCF751FF002866D148
:1059A00020686B460122017960680078FCF747FFA8
:1059B00000285CD194F82400E0B30C208DF800009E
:1059C00020686B460122017960680078FCF737FF98
:1059D000002872D13220FBF71FF9C0208DF800009B
:1059E000A07AC00702D0E0208DF8000020686B4646
:1059F0000122017960680078FCF721FF00285CD162
:105A0000607C18B102208DF8000001E08DF8005094
:105A100020686B460122C17B60680078FCF70FFFAD
:105A200028BB8DF8005020686B46012241796068E0
:105A300000783EE0FFE704208DF8000020686B4608
:105A40000122017960680078FCF7F9FE78B9A07C42
:105A500090B9A07AC0070FD05FF060008DF8000009
:105A600020686B46012201796068007800E024E03C
:105A7000FCF7E5FE08BB01E04020EFE73220FBF732
:105A8000CBF8607C18B101208DF8000001E08DF8A2
:105A9000005020686B460122C17B60680078FCF7EB
:105AA000CEFE50B92068064B012241796068103360
:105AB0000078FCF7C4FE002800D03046F8BD000096
:105AC000680000202DE9F047394C82468AB094F8EE
:105AD00024000F4620B1002000F00EF9012600E05E
